:020000040800F2
:100000009046002021020008831C0008B117000858
:10001000811C00083F0500085D200008000000006A
:10002000000000000000000000000000890100083E
:100030004105000800000000CD010008951C0008E3
:100040003B0200083B0200083B0200083B0200089C
:100050003B0200083B0200083B0200083B0200088C
:100060003B0200083B0200083B0200083B0200087C
:100070003B0200083B0200083B0200083B0200086C
:100080003B0200083B0200083B0200083B0200085C
:100090003B0200083B0200083B0200083B0200084C
:1000A0003B0200083B0200083B0200083B0200083C
:1000B000211D00083B020008511D00083B020008FA
:1000C0003B0200083B0200083B0200083B0200081C
:1000D0003B020008592000083B0200083B020008D0
:1000E0003B0200083B0200083B02000800F002F857
:1000F00000F03AF80AA090E8000C82448344AAF188
:100100000107DA4501D100F02FF8AFF2090EBAE885
:100110000F0013F0010F18BFFB1A43F0010318473B
:10012000A44E0000C44E0000103A24BF78C878C125
:10013000FAD8520724BF30C830C144BF04680C60ED
:10014000704700000023002400250026103A28BF35
:1001500078C1FBD8520728BF30C148BF0B60704739
:100160001FB51FBD10B510BD00F0B4F91146FFF763
:10017000F7FF02F05FF900F0D2F903B4FFF7F2FFE6
:1001800003BC00F0D5F90000224B19680868B0E8FC
:10019000F00F80F30988BFF36F8F4FF0000080F3FA
:1001A00011884EF00D0E70470000000006480068F0
:1001B000006880F3088862B661B6BFF34F8FBFF363
:1001C0006F8F00DF00BF00BF08ED00E0EFF3098094
:1001D000BFF36F8F0F4B1A6820E9F00F106008B55E
:1001E0004FF0500080F31188BFF34F8FBFF36F8F34
:1001F00003F0A2FC4FF0000080F31188BDE8084036
:1002000019680868B0E8F00F80F30988BFF36F8FB2
:10021000704700BF14000020EFF305807047000016
:100220000948804709480047FEE7FEE7FEE7FEE78A
:10023000FEE7FEE7FEE7FEE7FEE7FEE704480549C6
:10024000054A064B704700001F1D0008ED0000081E
:1002500090400020904600209042002090420020D4
:1002600040EA0103024630B59B0710D14FF001343C
:1002700000E008C208C91D1B9D4315EAC41FF8D041
:1002800013F0FF0102F8011B0DD01B0AF8E711F86B
:10029000013B002B02F8013B05D011F8013B002B7C
:1002A00002F8013BF3D130BD032A40F2308010F058
:1002B000030C00F0158011F8013BBCF1020F624401
:1002C00098BF11F801CB00F8013B38BF11F8013B92
:1002D000A2F1040298BF00F801CB38BF00F8013B3F
:1002E00011F0030300F02580083AC0F0088051F8AF
:1002F000043B083A51F804CBA0E80810F5E7121DBA
:100300005CBF51F8043B40F8043BAFF30080D207D8
:1003100024BF11F8013B11F801CB48BF11F8012BA4
:1003200024BF00F8013B00F801CB48BF00F8012BC7
:10033000704710B5203AC0F00B80B1E81850203A51
:10034000A0E81850B1E81850A0E81850BFF4F5AF75
:100350005FEA027C24BFB1E81850A0E8185044BFFF
:1003600018C918C0BDE810405FEA827C24BF51F86C
:10037000043B40F8043B08BF7047D20728BF31F860
:10038000023B48BF11F8012B28BF20F8023B48BFB1
:1003900000F8012B70474FF000020429C0F01280D2
:1003A00010F0030C00F01B80CCF1040CBCF1020F28
:1003B00018BF00F8012BA8BF20F8022BA1EB0C01FD
:1003C00000F00DB85FEAC17C24BF00F8012B00F8F3
:1003D000012B48BF00F8012B70474FF0000200B519
:1003E000134694469646203922BFA0E80C50A0E858
:1003F0000C50B1F12001BFF4F7AF090728BFA0E806
:100400000C5048BF0CC05DF804EB890028BF40F8D1
:10041000042B08BF704748BF20F8022B11F0804F13
:1004200018BF00F8012B70474FF0013C50F8042B27
:1004300051F8043B9A4221D1A2EB0C03934313EAF7
:10044000CC1317D150F8042B51F8043B9A4215D124
:10045000A2EB0C03934313EACC130BD150F8042BFB
:1004600051F8043B9A4209D1A2EB0C03934313EADF
:10047000CC13DBD04FF00000704700BFD01A01BA98
:10048000B1FA81F101F0180122FA01F0CB40C1F17B
:100490002001DBB2C0B2C01A2CFA01F3D11A914389
:1004A00011EAC311E6D1704770477047704710B525
:1004B00000F008F8006810BD10B5044600F002F81E
:1004C000046010BD0048704730400020004870476D
:1004D000304000207546FFF7F9FFAE46050069463B
:1004E000534620F00700854618B020B5FFF7A6FE5A
:1004F000BDE820404FF000064FF000074FF0000825
:100500004FF0000B21F00701AC46ACE8C009ACE8A5
:10051000C009ACE8C009ACE8C0098D46704710B509
:100520000446AFF300802046BDE81040FFF725BE2B
:1005300001491820ABBEFEE7260002007047FEE727
:10054000704772B6FEE7000070B5044600F004F98B
:100550000546601C02D004480078044400F0FCF812
:10056000401BA042FAD370BD040000202DE9F84FD3
:10057000DFF8B8910024A9F1040B23460F2709F1F5
:10058000040AABF1040EC9E00125A5402A40AA42A5
:100590007DD1674ED1F804C0ACEB0608B44532D02B
:1005A00014DCBCF1030F3AD009DCBCF1000F2AD0F7
:1005B000BCF1010F1CD0BCF1020F31D11DE0BCF128
:1005C000110F17D0BCF1120F2AD119E0B8F5881F0E
:1005D00019D006DCB8F5803F15D0B8F5801F1FD1C3
:1005E00011E0B8F5001F0ED0B8F5041F18D10AE0CD
:1005F000CB6815E0CB681B1D12E0CB6808330FE019
:10060000CB680C330CE08B682BB1012B4FF0080347
:1006100003D0456104E0042302E0056100E000230B
:10062000FF2A01D8064601E000F104064FEA8405DE
:1006300001D9A5F12005D6F8008007FA05FC28EAC3
:100640000C0803FA05F548EA0508C6F800804D686D
:10065000ED0062D5374DAE6946F00106AE61AD6979
:1006600024F0030605F001050095334D06EB050C5B
:10067000DCF80850A607360F07FA06F825EA080541
:10068000DFF8B880404503D14FF0000817E044E0A0
:10069000DFF8AC80404502D14FF001080FE0DFF8F1
:1006A000A480404502D14FF0020808E0DFF89880AE
:1006B000404502D14FF0030801E04FF0040808FA6A
:1006C00006F848EA0508CCF808804D68D9F80060BB
:1006D000ED024D4601D5164300E096432E604D686D
:1006E000DAF80060AD02554601D5164300E09643A6
:1006F0002E604D68DBF80060AD035D4601D5164302
:1007000000E096432E604D68DEF80060ED0375460C
:1007100001D5164300E096432E60641C0D682A46FE
:10072000E5407FF431AFBDE8F88F000008040140D8
:1007300000001110001002400000014000080140BC
:10074000000C014000100140001401408068084086
:1007500000D0012070470000014880687047000009
:100760000400002070B5040025D094F83D00002559
:1007700020B984F83C50204600F04EF9242084F83B
:100780003D002068016821F00101016020680168D6
:1007900041F4004101602068016821F400410160DA
:1007A00000F0E8FA4D4A6168914201D84C4900E0F6
:1007B0004C49884201D2012070BD4B492368B0FBEF
:1007C000F1F15E6826F03F060E435E606368934277
:1007D00006D94FF4967359434FF47A73B1FBF3F192
:1007E0002368491C1E6A26F03F063143196261687E
:1007F000914210D84900401EB0FBF1F2521CC2F3E6
:100800000B02042A01D2042022E0B0FBF1F0401CCC
:10081000C0F30B001CE0A268F2B301EBC10303EBD1
:100820000116431EB3FBF6F35B1C43F480431B0528
:1008300049D092B301EBC10202EB0111401EB0FBA3
:10084000F1F0401CC0F30B0040F4804040F4004045
:100850002168CA694CF6FF739A431043C861D4E912
:10086000071001432068026822F0C00211430160B2
:10087000D4E9030101432068826848F2FF339A43B8
:1008800011438160D4E9050108432168CA6822F058
:10089000FF021043C86001E00EE016E02068016826
:1008A00041F0010101602564202084F83D002563AA
:1008B00084F83E50002070BD01EB4106431EB3FB9F
:1008C000F6F35B1CB3E70120C2E701EB4101401ED8
:1008D000B0FBF1F0401CC0F30B00B7E7A0860100AD
:1008E00080841E0000093D0040420F002DE9F84FB2
:1008F0001F4690468A460446DDF82890FFF72CFFF5
:10090000054694F83D0020287FD119230122404953
:100910002046009500F0DEFF002876D194F83C00D8
:10092000012872D0012084F83C0020680168C907C2
:1009300003D1016841F0010101602068016821F4E0
:1009400000610160212084F83D00102084F83E0001
:1009500000262664C4F824806785608D20852D4894
:10096000E0622B464A465146204600F039FF90B9D6
:10097000206841698069009036E02A464946204651
:1009800001F04EF850B1206C042804D120680168B1
:1009900041F4007101600120BDE8F88F606A2168B0
:1009A00000780861606A401C6062618D491E618543
:1009B000218D491E89B2218522685369DB435B077B
:1009C0000BD451B100781061606A401C6062608D88
:1009D000401E6085208D401E20852A4649462046BF
:1009E00000F04CFF0028CED1208D0028C5D154F84E
:1009F0003D0B016841F400710160202004F81E09DC
:100A0000E67766770020C7E7FFE70220C4E700002B
:100A1000020010000000FFFF10B586B00021009119
:100A200001910291039100680F4988421AD10F4C3D
:100A3000A06940F00800A061A069694600F00800C4
:100A40000490C020009012200190032003900848D9
:100A5000FFF78CFDE06940F40010E061E06900F40C
:100A60000010049006B010BD005400400010024079
:100A7000000C01400248816802781144816070478F
:100A800004000020074810B5016841F01001016022
:100A9000032000F0A7F80F2000F006F800F050F84F
:100AA000002010BD0020024030B505461F4887B029
:100AB000C16941F00401C161C06906A900F00400E8
:100AC000009001A800F036F90498B0B100F052F996
:100AD00040001749174AB0FBF1F11748491E026060
:100AE000416040F2E7320021C0E903218160816169
:100AF00000F04CFB040003D015E000F03BF9E8E700
:100B00000D4800F099FB04000DD11E2000F03CF8C8
:100B1000102D07D2002229461E2000F043F8074876
:100B2000056000E0012407B0204630BD00100240FF
:100B300040420F0000080040780400200800002018
:100B40000F4808B5816941F001018161816901F0B7
:100B500001010091C16941F08051C161C069002269
:100B600000F0805000900F21901E00F01BF8054807
:100B7000416821F0E06141F00071416008BD000072
:100B80000010024000000140002809DB00F01F02B5
:100B9000012191404009800000F1E020C0F80011DF
:100BA00070470000F0B40E4B1B680C46C3F30223E1
:100BB000C3F10705042D00D90425191D072901D209
:100BC000002300E0DB1E012606FA05F1491E214044
:100BD00099409E40761E16403143F0BC01F052BA57
:100BE0000CED00E0064900F0070208684FF6FF032D
:100BF000184040EA0220034A104308607047000092
:100C00000CED00E00000FA052DE9F0470F46050065
:100C100061D0434E306800F00700B84209D2306816
:100C200020F0070038433060306800F00700B84219
:100C300051D128683B4C810712D5400703D5606825
:100C400040F4E06060602878000703D5606840F4F5
:100C5000605060606068A96820F0F0000843606040
:100C60002878C00728D06868012810D02168022899
:100C700010D0890700292EDA616821F003010143B1
:100C80006160FFF769FD804641F288390DE0216817
:100C90008903EFE78901EDE7FFF75EFDA0EB0801AF
:100CA000494502D90320BDE8F0876068696800F013
:100CB0000C00B0EB810FEFD1306800F00700B842B4
:100CC0000BD9306820F0070038433060306800F0FE
:100CD0000700B84201D00120E5E72878400705D594
:100CE0006068E96820F4E0600843606028780007E5
:100CF00006D56068296920F4605040EAC100606050
:100D000000F058F86168084AC1F30311515CC8400B
:100D10000649086006480068FFF7C6FE0020C2E7E3
:100D20000020024000100240624500081000002030
:100D3000080000200F2202600C4A536803F00303EE
:100D40004360536803F0F0038360536803F4E06387
:100D5000C36052684FF4E06303EAD20202610448C0
:100D6000006800F0070008607047000000100240B3
:100D7000002002400448054900684968044AC1F35C
:100D80000221515CC8407047100000200010024052
:100D9000724500080448054900684968044AC1F3DF
:100DA000C221515CC8407047100000200010024072
:100DB000724500080E4A51680E4801F00C03042BDE
:100DC00011D0082B0FD10C48C1F38343C903C05C79
:100DD0000AD55168084AC1F34041921E515C054A48
:100DE0005043B0FBF1F0704704494843704700009E
:100DF0000010024000127A005245000800093D0030
:100E00002DE9F84F040070D02078C04DC00749D0BC
:100E10006868C0F38100012807D06868C0F38100CA
:100E2000022809D16868C00306D52868800339D52F
:100E300060680028E7D035E06068B0F5803F0BD0EF
:100E400010B1B0F5A02F11D0286820F480302860B0
:100E5000286820F4802002E0286840F48030286070
:100E6000606890B1FFF778FC06460AE0286840F415
:100E700080202860F0E700BFFFF76EFC801B64282D
:100E800073D828688003F7D50CE0FFF765FC0646A9
:100E900005E000BFFFF760FC801B6428F0D82868DD
:100EA0008003F7D420789A4E80074FF001094FF065
:100EB000000839D5686810F00C0F07D06868C0F3D7
:100EC0008100022809D16868C00306D42868800719
:100ED00014D52069012808D110E02069B0B1C6F806
:100EE0000090FFF739FC074605E00AE1FFF734FC04
:100EF000C01B0228C4D828688007F7D52868616914
:100F000020F0F80040EAC10028600DE0C6F800803B
:100F1000FFF722FC074604E0FFF71EFCC01B022877
:100F200023D828688007F7D4207800072CD5794883
:100F3000A169D9B1C0F80090FFF70EFC074604E0A4
:100F4000FFF70AFCC01B02280FD8686A8007F7D594
:100F500071484FF4FA510068B0FBF1F0009000BF07
:100F60000098411E0091FAD20EE080E0C0F80080A7
:100F7000FFF7F2FB074604E0FFF7EEFBC01B022879
:100F800075D8686A8007F7D42078400760D5E8698B
:100F90000027C00008D4E86940F08050E861E869A3
:100FA000012700F0805000905C480168C90513D407
:100FB0000168834641F480710160FFF7CDFB8246F2
:100FC00006E000BFFFF7C8FBA0EB0A0064284ED87C
:100FD000DBF80000C005F5D5E06801280AD008B1AB
:100FE000052813D0286A20F001002862286A20F022
:100FF000040002E0286A40F001002862E06841F243
:10100000883B98B1FFF7A8FB82460BE0286A40F0C6
:1010100004002862EEE700BFFFF79EFBA0EB0A0189
:1010200059455AD8286A8007F6D50CE0FFF794FB9B
:10103000824605E0FFF790FBA0EB0A0159454CD82A
:10104000286A8007F6D41FB1E86920F08050E86173
:10105000E06988B36968C1F38101022944D002289C
:10106000C6F8608004D0FFF777FB044638E034E030
:10107000FFF772FB074604E0FFF76EFBC01B022878
:101080002BD828688001F7D4206AB0F5803F05D1BD
:101090006868A16820F4003008436860D4E908015A
:1010A0000843696821F4741108436860C6F86090C9
:1010B000FFF752FB044606E025E000BFFFF74CFBBC
:1010C000001B022809D828688001F7D51BE000BF63
:1010D000FFF742FB001B022802D90320BDE8F88F6E
:1010E00028688001F4D40EE00128F7D06868226AED
:1010F00000F48031914204D1616A00F4701088429A
:1011000001D00120EAE70020E8E7000000100240DB
:101110000000424280044242100000200070004063
:101120007047704770B590F83C20012A26D0012402
:1011300080F83C40022280F83D2003685A689D6890
:1011400022F070060A6832435A600D4B02689A42D8
:1011500008D0B2F1804F05D00A4B9A4202D00A4B18
:101160009A4204D1496825F080031943916080F8C0
:101170003D40002180F83C10084670BD022070BD43
:10118000002C0140000400400008004010B504009D
:1011900003D094F83D0010B107E0012010BD0020FD
:1011A00084F83C00204600F01FF8022084F83D003F
:1011B000211D206800F0D2FD012084F8460084F84B
:1011C0003E0084F83F0084F8400084F8410084F831
:1011D000420084F8430084F8440084F8450084F811
:1011E0003D00002010BD000008B501681048B1F1B5
:1011F000804F0BD00F4A914207D1C16941F00201E3
:10120000C161C06900F00200009008BDC16941F0F1
:101210000101C161C069002200F0010000900521B8
:101220001C20FFF7BFFCBDE808401C20FFF7ACBC4A
:10123000001002400004004090F83D10012901D048
:1012400001207047022180F83D100168CA6842F011
:101250000102CA6000680B49884208D0B0F1804F93
:1012600005D00949884202D00849884204D18168E2
:1012700001F00701062903D0016841F00101016076
:1012800000207047002C014000040040000800408E
:1012900070B5044690F83C000025012817D00126BF
:1012A00084F83C60022084F83D002068826822F0C7
:1012B000770222F47F4282600868502838D00DDC23
:1012C00020284FD005DC90B3102811D14AE002202D
:1012D00070BD302846D040280AD13BE060282FD08E
:1012E00070280DD0B0F5805F03D0B0F5005F12D04C
:1012F000012584F83D60002084F83C00284670BD3C
:10130000CB68D1E90121206800F071FD2068816877
:1013100041F0770109E0CB68D1E90121206800F0B4
:1013200066FD2068816841F480418160E1E719E051
:10133000CA684968206800F00FFE5021206806E066
:10134000CA684968206800F018FE6021206800F033
:1013500058FDCEE7CA684968206800F0FDFD4021CD
:101360002068F4E7226801461046F0E770472DE94F
:10137000F04104460068C66805694FF00007A907F8
:1013800013D5B10711D5F91E01610120207720681E
:1013900080698007204602D0FFF7E8FF04E000F0F4
:1013A000A5F8204600F037F92777680716D57007AB
:1013B00014D521686FF004000861022020772068AE
:1013C000806910F4407F204602D0FFF7CFFF04E091
:1013D00000F08CF8204600F01EF92777280715D575
:1013E000300713D521686FF00800086104202077CA
:1013F0002068C0698007204602D0FFF7B7FF04E0ED
:1014000000F074F8204600F006F92777E80616D5B4
:10141000F00614D521686FF01000086108202077CD
:101420002068C06910F4407F204602D0FFF79EFF7D
:1014300004E000F05BF8204600F0EDF82777E807BD
:1014400008D0F00706D021686FF00100086120463F
:1014500000F030F9280608D5300606D521686FF06F
:10146000800008612046FFF75BFE680608D570061D
:1014700006D521686FF040000861204600F024F98D
:10148000A8060AD5B00608D521686FF020000861CB
:101490002046BDE8F041FFF744BEBDE8F081000002
:1014A00000B585B00021009101910291039100687F
:1014B0000B49884211D10B48816941F004018161D7
:1014C0008069694600F004000490402000900220EA
:1014D000019003900448FFF749F805B000BD0000F3
:1014E000000400400010024000080140704770B541
:1014F000044690F83C0000260D4601280FD001203C
:1015000084F83C006AB1042A1DD0082A2FD00C2A86
:101510003FD00126002084F83C00304670BD0220F8
:1015200070BD206800F076FC2068816941F00801F8
:1015300081612068816921F00401816120688169ED
:101540002A69114311E0206800F08CFC2068816951
:1015500041F4006181612068816921F480618161C9
:10156000206881692A6941EA02218161D2E7206805
:1015700000F0A4FC2068C16941F00801C161206845
:10158000C16921F00401C1612068C1692A69114360
:1015900011E0206800F0BEFC2068C16941F40061E0
:1015A000C1612068C16921F48061C1612068C1699D
:1015B0002A6941EA0221C161ACE710B5040003D0F9
:1015C00094F83D0010B107E0012010BD002084F820
:1015D0003C00204600F01EF8022084F83D00211D4A
:1015E000206800F0BBFB012084F8460084F83E0030
:1015F00084F83F0084F8400084F8410084F84200F9
:1016000084F8430084F8440084F8450084F83D00E1
:10161000002010BD7047704710B50446022249B142
:1016200004290ED0082913D094F84100012816D0BF
:10163000012010BD94F83E000128F9D184F83E2025
:101640000FE094F83F000128F2D184F83F2008E031
:1016500094F840000128EBD184F8402001E084F8A0
:1016600041200122206800F0B5FB0F492068884224
:1016700003D1426C42F4004242642068884208D0A0
:10168000B0F1804F05D00949884202D0084988420C
:1016900004D1816801F00701062903D0016841F0F7
:1016A00001010160002010BD002C01400004004039
:1016B0000008004000680349884201D1FFF7DAB909
:1016C0007047000000080040704770B5040004D067
:1016D00094F84100002510B106E0012070BD84F8A7
:1016E0004050204600F024F8242084F8410020686F
:1016F000C16821F40051C160204600F051FC20680F
:10170000016921F4904101612068416921F02A01B9
:1017100041612068C16841F40051C16065642020C6
:1017200084F8410084F842006563002070BD000029
:1017300030B585B0002400940194029403940068AD
:10174000184988422CD11848816941F4804181614F
:10175000816901F480410491816941F00401816152
:101760008069124D00F0040004904FF40070009066
:10177000022001900320039069462846FEF7F6FEFA
:101780002815CDE90004694628460294FEF7EEFECE
:10179000002205212520FFF705FA2520FFF7F4F99F
:1017A00005B030BD00380140001002400008014083
:1017B000FEE701684A69D24352050FD46FF4806294
:1017C0004A61002140F8301F202242738173026970
:1017D00042F004020261017301207047002070474B
:1017E000F8B50446C06A1E460D461746082807D0BD
:1017F000012805D010F5803F02D0206B122804D1BB
:101800002068016841F480710160134600224FF0A6
:1018100001112046009600F05DF840B12068006894
:10182000C00502D54FF4007020640320F8BD206984
:10183000B0F5804F0ED00620216800EAD51040F0A8
:10184000F000086133463A460B49204600F08AF81A
:1018500078B902E005F0FE0000E0E8B22168086116
:10186000054933463A46891F204600F07BF8002898
:10187000DCD00120F8BD00000800010070B516465C
:101880000D4604461EE02046FFF793FF08B10120F5
:1018900070BD681C16D0FEF75FFF801BA84200D801
:1018A00085B920684069C04340070BD5002044F843
:1018B000300F20216173A073216941F02001216163
:1018C0002073E4E720684069C0434007DBD4002070
:1018D00070BD00002DE9F047984617460D460446B6
:1018E000C1F30746DDF820902AE000BFB8F1FF3FC2
:1018F00026D0FEF731FFA0EB0901414502D8B8F12F
:10190000000F1DD12068012E16D0806925EA000045
:101910000004000C12D00020B84211D1002044F87D
:10192000300F20216173A073216941F020012161F2
:1019300020730120BDE8F0874069E7E70120EBE76D
:101940002068012E0AD0806925EA00000004000CFE
:1019500006D00020B842C9D00020EBE74069F3E789
:101960000120F7E72DE9F047984616460D46044654
:101970004FF000094FF0200AC1F3074723E0206829
:101980004069C043400515D42068016841F40071E6
:10199000016021686FF480604861C4F8309084F879
:1019A0003DA084F83E90216C41F00401216484F84C
:1019B0003C9021E0701C06D0FEF7CEFEA0EB0800A4
:1019C000B04203D816B1012F1FD021E02068012FAB
:1019D00015D0806925EA00000004000C18D000BF73
:1019E00044F8309F84F80DA084F80E90216941F0EE
:1019F0002001216184F80C900120BDE8F087406946
:101A000025EA00000004000CEAD12068406901E0EA
:101A10002068806925EA00000004000CAFD1ECE7E3
:101A200070B516460D4604461EE02046FFF7C1FE7F
:101A300008B1012070BD681C16D0FEF78DFE801B1A
:101A4000A84200D885B920684069C04300060BD57C
:101A5000002044F8300F20216173A073216941F008
:101A6000200121612073E4E720684069C04300063B
:101A7000DBD4002070BD000000B587B01C220649F1
:101A80006846FEF756FC0021684600F0ADFF0349AA
:101A9000086007B000BD00003445000800000020C9
:101AA00030B585B00024164801940394816941F053
:101AB00020018161816901F020010491816941F077
:101AC00004018161816901F004010491816941F09F
:101AD000080181618069012500F00800049003205D
:101AE0000090694602950748FEF740FD4FF6034017
:101AF0008DE8310069460448FEF738FD05B030BD79
:101B00000010024000080140000C01400D4810B5D3
:101B10000B4901600C49416000214FF48042816013
:101B2000C0E9031241618161C1610162FEF71AFEE1
:101B3000002803D0BDE81040FEF703BD10BD000033
:101B4000005400404C030020A086010010B586B070
:101B500000241648009401940294039404944FF0D6
:101B600080410594C0E9001440F6C141C0E902413A
:101B7000802104618161FFF709FB08B1FEF7E1FCF8
:101B80004FF48050009069460848FFF781FB08B188
:101B9000FEF7D7FC049404A904480594FFF7C2FAA1
:101BA000002801D0FEF7CDFC06B010BDA003002038
:101BB00010B58EB000240794089409940A940B94ED
:101BC0001C2168460C94FEF708FC1E481C49C0E91D
:101BD000001440F6FF71C0E9024180210461816177
:101BE000FFF7D4FA08B1FEF7ACFC4FF48050079031
:101BF00007A91448FFF74CFB08B1FEF7A2FC1148F7
:101C0000FFF7DBFC08B1FEF79CFC0B940BA90D4819
:101C10000C94FFF787FA08B1FEF793FC6020CDE93A
:101C2000000402940022694606480494FFF75FFC12
:101C300008B1FEF786FC0348FFF732FC0EB010BD7A
:101C400000040040E80300200C4810B50A49016078
:101C500047F612214160002181600C22C160C0E979
:101C600004128161C161FFF730FD002803D0BDE897
:101C70001040FEF766BC10BD003801403004002063
:101C8000FEE7FEE700F0BAFB00F08AFD022000F05C
:101C90009FFEF7E710B5502080F31188BFF34F8FF8
:101CA000BFF36F8F02F022F818B104494FF0805053
:101CB0000860002080F3118810BD000004ED00E0F2
:101CC00030B58FB028216846FEF787FB14210AA89B
:101CD000FEF783FB01210804CDE9001000240294E3
:101CE00002250491CDE907504FF4E01009906846B1
:101CF000FFF786F808B172B6FEE70F20CDE90A05B6
:101D00004FF48060CDE90C4002210AA80E94FEF742
:101D10007BFF002801D072B6FEE70FB030BD7047E0
:101D2000094810B500680169C90707D06FF00101C3
:101D3000016101F017FC054909684863BDE81040DE
:101D40000148FFF714BB0000A0030020E8030020B7
:101D50000148FFF70CBB000078040020F0B50268D2
:101D6000194B1A4C1A4D4FF08047984205D0B84293
:101D700003D0A04201D0A84203D122F070064A68E5
:101D80003243984205D0B84203D0A04201D0A842C5
:101D900003D122F44074CA6822434C6922F08002C5
:101DA000224302608A68C2620A688262984201D154
:101DB00009690163012141610169C90703D0016912
:101DC00021F001010161F0BD002C01400004004040
:101DD0000008004010B501F01F030121046A99407A
:101DE0008C430462016A9A401143016210BD10B530
:101DF000846842EA032224F47F440A432243826037
:101E000010BD826822F070020A4342F0070181602F
:101E10007047000030B5036A026A22F001020262D4
:101E20004268846924F073050C682C4323F0020592
:101E30008B682B430A4DA8420BD123F00805CB68D1
:101E400022F440722B434D6923F0040315438A6941
:101E50002A434260846149684163036230BD0000E7
:101E6000002C014030B5026A036A23F010030362BC
:101E7000436884690D6824F4E64444EA05248D68C7
:101E800022F0200242EA05120B4DA8420ED1CD6885
:101E900022F0800242EA05124D6923F4406343EACE
:101EA00085038D6922F0400243EA85034360846123
:101EB00049688163026230BD002C014030B5036A7D
:101EC000026A22F4807202624268C46923F40073D9
:101ED00024F073050C682C438D6843EA05230C4DF0
:101EE000A8420ED1CD6823F4006343EA05234D696F
:101EF00022F4405242EA05128D6923F4806342EADB
:101F000005124260C4614968C163036230BD0000CC
:101F1000002C014030B5046A026A22F48052026249
:101F20004268C3690D6823F4E64343EA05238D68DC
:101F300024F4005444EA0534064DA84204D14D6906
:101F400022F4804242EA85124260C361496801641A
:101F5000046230BD002C014010B5036A046A24F00D
:101F600001040462846924F0F00444EA021423F0BA
:101F70000A020A438461026210BD10B5036A046A52
:101F800024F010040462846923F0A00324F4704454
:101F900044EA023243EA01118261016210BD00008D
:101FA00070B5044600680169E26821F440511143AC
:101FB00001612169A0680843616908432168CA6812
:101FC00041F20C639A430243CA6020684169A269E6
:101FD00021F44071114341611E492068884202D1B9
:101FE000FEF7D8FE01E0FEF7C5FE00EBC00101EBF5
:101FF0000012606864218000B2FBF0F3B3FBF1F3E0
:102000006FF018067343B2FBF0F5B2FBF0F605EB88
:102010008305322303EB0515B5FBF1F5B6FBF1F6AD
:1020200005F0F00505EB0615B2FBF0F6B2FBF0F09B
:10203000B0FBF1F06FF01802504306EB800003EBA9
:102040000010B0FBF1F0216800F00F002844886018
:1020500070BD00000038014000F0B0B9FEE741005B
:10206000080218BF04200A0E18BF40F001004FF00C
:102070007F4232EA010108BF40F00200012808BF98
:10208000052070470907090E002804DB00F1E02055
:1020900080F80014704700F00F0000F1E02080F895
:1020A000141D704700214FF07E5001F04FBF01F02A
:1020B000E5BE0021084601F049BF61214FF0E04034
:1020C00002F0F9B96FF05E01080702F0F4B9884236
:1020D00001DA084670479042FCDD10467047000068
:1020E0002338372870D2DFE800F0767F7F7F7F7F4C
:1020F0007F7F7F7F7C7F7F1C1E2124272A2D30330A
:1021000036797F7F7F7F7F7F393C3F4245484B7FD9
:102110004E7F7F5154575A7F5D606366696C707F54
:102120007300334870473248401D704730480A30CA
:1021300070472F480F3070472D48143070472C4897
:10214000193070472A481E3070472948233070479D
:1021500027482830704726482D30704724483730AC
:10216000704723483C307047214841307047204831
:10217000463070471E484B3070471D4850307047FE
:102180001B48553070471A485A30704718485F301E
:1021900070471748643070471548693070471448D5
:1021A0006E3070471248733070471148783070476E
:1021B0000F487D3070470E48823070470C4887309A
:1021C00070470B488C3070470EE009489130FAE7B1
:1021D00007489630F7E706483230F4E704480A38F3
:1021E000F1E70348401FEEE701480F38EBE7000036
:1021F000AD4D00082DE9F041344C01212046FEF799
:10220000A5FA98B1002602212046FEF79FFA78B180
:1022100000252F4C01274FF000085EB155B1FEF7A5
:102220009BFAA17981B1E179B9B149E00126EAE7E8
:102230000125EEE7FEF790FA84F8068084F807801F
:10224000A078DEB1B8B125E0A77184F807802061DD
:1022500084F8048084F8058032E02169401AB0F5E2
:10226000167F2DD301F03AFA401C00F0030001F074
:1022700013FBE77124E075B9277114E050B12079A0
:1022800030B101F025FA48B15FF0000001F0FCFA2E
:1022900084F804803DB1E07810B111E00120F5E749
:1022A00076B967710CE0E07850B1607930B101F037
:1022B00053F948B15FF0000001F0D2FA84F80580CC
:1022C000A670E570BDE8F0810120F5E70008014047
:1022D000940000202DE9F04701F0E6F8DFF8708067
:1022E0000446002698F80100DFF8689084EA0007A9
:1022F0005FF0010505FA06F0C0B207420BD019F8ED
:102300000620044204D06421104601F02BFA02E0BA
:10231000104601F00FFA761CF6B2082EEAD3072019
:1023200005FA00F12246214202D0002804DB05E034
:10233000401E40B20028F3DAFF2102E0C1B219F8D2
:10234000011088F8001088F80120BDE8F08700002F
:1023500094000020964D0008014800787047000066
:102360009400002010B5074C207A002807D0FEF713
:10237000F3F96169401AB0F5FA7F01D8012010BD68
:10238000002010BD940000200A48017A002910D1D5
:1023900001210172002141728172C1720173417386
:1023A00041610548006801684168C16841F0200149
:1023B000C1607047940000203004002070B50C48C4
:1023C0000168086810F02F0F11D049688006CDB25F
:1023D0000DD5084C607A00F05BF8A17A884203D0F2
:1023E0000549627A8D546072FEF7B6F9606170BD7E
:1023F0003004002094000020E43F002070B50B4C16
:102400000B4DA07A617A884205D1FFF7F3FEBDE853
:102410007040FFF75FBFA07A2E5CA07A00F038F81A
:10242000A072304600F03AF8EBE70000940000207C
:10243000E43F0020FEF726FBFFF742FCFFF730FBEE
:10244000FFF784FBFFF7B4FBFFF760FBFFF7FCFB34
:1024500001F04AF9FFF798FF00F000F9002001F0C1
:102460001BFA00210548FFF7D7F80548FEF7E4FE00
:10247000FFF702FB00F0B3FAFEE70000E8030020DC
:10248000A003002001460020842900D0C81C70470A
:10249000401CC0B2402800D30020704770B5264CC5
:1024A00001064FF0000520D5F82843D2F02802D3CA
:1024B000E57225733DE0E07200F0F000B02810D026
:1024C00006DC80280DD090280BD0A02806D108E08B
:1024D000C02808D0D02806D0E02802D000202073E1
:1024E00027E00220FBE70120F9E7E27A002A21D069
:1024F000237B002B1ED01049667B0E31022E00D2AA
:102500008855761CF0B26073984213D30878022B7A
:1025100001D3497800E0002102F0F002902A02D0B5
:10252000802A04D005E011B101F01CF901E001F0AE
:1025300001F9657370BD00009400002010B501F032
:1025400029FE0C4901F010FF0B4901F0FFFC014688
:102550004FF0804000F072FA084901F02FFE202170
:1025600001F0A9FF064901F0F1FCBDE8104001F0BF
:10257000D9BD000000008A42000040410000DC4359
:102580000044AC467CB505460C461046FFF7A8FD56
:1025900001788DF8001041788DF8011081788DF860
:1025A0000210C1788DF8031000798DF80400002026
:1025B0008DF805002146284600F03FF806216846C0
:1025C00000F0DCF97CBD70B515460C46064606E009
:1025D000214630466D1CFFF7D5FFA41DE4B22A78D2
:1025E000002A01D07A2CF3D970BD00002DE9F0410A
:1025F0001D4617460E46804600240BE03A5DC2B1E8
:1026000004EB440006EB4000C1B24046FFF7BAFFBE
:10261000641CE4B2AC42F1D30BE000BF04EB440015
:1026200006EB4000C1B220224046FFF7ABFF641C1E
:10263000E4B2AC42F2D3BDE8F08110B5B0300C4644
:10264000C0B200F08BF904F00F0000F087F9102001
:1026500000EB1410BDE8104000F080B97FB53220C7
:10266000FDF772FFAE2000F079F9202000F076F936
:10267000002000F073F9B02000F070F9C82000F0DD
:102680006DF9002000F06AF9102000F067F9402091
:1026900000F064F9812000F061F97F2000F05EF91C
:1026A000A12000F05BF9A62000F058F9A82000F066
:1026B00055F93F2000F052F9A42000F04FF9D32043
:1026C00000F04CF9002000F049F9D52000F046F95F
:1026D000802000F043F9D92000F040F9F12000F00B
:1026E0003DF9DA2000F03AF9122000F037F9DB204A
:1026F00000F034F9402000F031F98D2000F02EF97F
:10270000142000F02BF9AF2000F028F900200090F1
:10271000019002900446039000212046FFF78DFFB0
:1027200000251021684600F029F96D1CEDB2082D36
:10273000F7D3641CE4B2082CEED300210DA20846A6
:10274000FFF741FF0DA200210220FFF73CFF0DA281
:1027500000210420FFF737FF0CA200210620FFF71D
:1027600032FF0CA200210720FFF72DFF0B490120AB
:1027700008707FBD574156453A0000004E4F544502
:102780003A00000054524D3A00000000444C593ABF
:10279000000000004D4944493A000000AC00002010
:1027A00000B589B0FDF7D8FF5C490A78002A7DD0D2
:1027B0004A68821A502A79D3486000F08FFF50B3DC
:1027C00001282AD002282AD003282AD054A102A8FE
:1027D000FDF746FDFFF7C0FD0022FF2823D00C23A4
:1027E000B0FBF3F103FB1101B0FBF3F04B4B401EC8
:1027F0001C3353F821104B780978232B8DF80010E7
:1028000015D030308DF801008DF8022000F060FF07
:10281000B0B145A115E045A1D9E746A1D7E747A149
:10282000D5E747A1D3E72D208DF80000EAE7232163
:102830008DF8011030308DF802008DF80320E5E7A7
:1028400042A105A8FDF70CFD00F086FE08B136A1F7
:1028500000E03EA106A8FDF703FDFFF783FD08B1E8
:102860003BA100E03BA107A8FDF7FAFC3A4902A80A
:10287000FDF7DAFDC0B9294968461431FDF7D4FDEA
:1028800090B9264905A80831FDF7CEFD60B9234966
:1028900006A80C31FDF7C8FD30B9204907A8103152
:1028A000FDF7C2FD002837D002A900E034E02A4835
:1028B000FDF7D6FC194869461430FDF7D1FC1748DE
:1028C00005A90830FDF7CCFC144806A90C30FDF72B
:1028D000C7FC124807A91030FDF7C2FC0A2302AA60
:1028E00024210020FFF782FE04236A4624210220CF
:1028F000FFF77CFE032305AA24210420FFF776FEC0
:10290000032306AA24210620FFF770FE032307AA4B
:1029100024210720FFF76AFE09B000BDAC000020AB
:10292000554E4B4E4F574E004F4E000053494E45AB
:1029300000000000535155415245000053415700DB
:10294000545249414E474C45000000004F46460056
:10295000494E00002D2D0000244000201CB5002110
:1029600001918DF8050014200090022301AA78211E
:102970000148FDF7BBFF1CBD4C030020F0B587B03C
:102980000746002440200E468DF8040019E0301B55
:10299000102800D9102085B239192A460DF10500FA
:1029A000FDF782FC14200090681C83B201AA7821F4
:1029B0000648FDF79BFF10B1012007B0F0BD60197C
:1029C00084B2B442E3D30020F7E700004C030020B8
:1029D00010B500B9012001F04BF8002010BD10B572
:1029E00001F06CF8002010BD7FB50D46044641692A
:1029F000B0F9080081B1A16971B1FFF743FDD4E9D5
:102A000005128DE80700D4E900102B46226901F079
:102A100042F9039004B070BDFFF734FD03A9CDE97E
:102A20000001208A2B4682B2D4E9001001F006F999
:102A3000012801D00020EDE70398EBE72DE9F04DE8
:102A40000E460023A0F5000C4FF00071354684B00F
:102A500002464FF07E5401EB45014FF07F48BCF138
:102A6000FE4F80F09F81B1F1804FC0F0DB81FE49C5
:102A70000144B1F5005F40F2A78200F58021C90C46
:102A800001F00F07C1F307117F39A2EBC15501EB2C
:102A9000030B384601F066FB6FF0030101F00BFDFC
:102AA0004FF07E5101F0EAF901460290284601F00C
:102AB0005BFC01902846029901F0E0F900F5006AFC
:102AC0006FF30B0A00905146029801F04DFC294625
:102AD00001F0D4F902904FF07E50009901F036FADF
:102AE00001460090019801F069FB00F500656FF365
:102AF0000B052846029901F061FB029051462846D9
:102B000001F05CFB019901F025FC029901F02CFC1D
:102B1000009901F053FB01460190284601F0AEF9FF
:102B20000146029001F04AFB8246D04901F046FB83
:102B3000CF4901F0A3F9514601F040FB8246002144
:102B4000284601F0B8FC00905146029801F036FB8F
:102B500005460021019801F0AEFC294601F08EF9EE
:102B600082460146009801F089F900F500656FF38F
:102B70000B052946009801F0F7FB514601F07EF95C
:102B80008246BC49284601F019FB0090BA495046DC
:102B900001F014FB8246B949284601F00FFB51466B
:102BA00001F06CF982460146009801F067F900F5E2
:102BB00000656FF30B052946009801F0D5FB5146DF
:102BC00001F05CF98246AE48784450F8371000EBCB
:102BD000C700019147684FEA0B1001F0C3FA00905B
:102BE0003946504601F04AF9294601F047F9019962
:102BF00001F044F9009901F041F900F5006B6FF321
:102C00000B0B5846009901F0AFFB019901F0ACFBAA
:102C1000294601F0A9FB394601F0A6FB514601F017
:102C200099FB06F5006782466FF30B07394630467D
:102C300001F09AFB0021009008464FF0000000F0E0
:102C40000C063946584601F0B9FA054620F0004016
:102C5000B0F18B4F0ADDB8EB400F07D34FF08B403C
:102C600060F31E052F464FF0000A1FE0384600991A
:102C700001F004F9514601F0A1FA074658460099BF
:102C800001F09CFA394601F0F9F8824601462846DF
:102C900001F0F4F800F500676FF30B07394628469A
:102CA00001F062FB514601F0E9F8824631460C2002
:102CB0004FF000005146384601F0E0F801F008FA04
:102CC0000646051101F04EFA394601F043FB514624
:102CD00001F0D4F807466B4901F070FA6A4901F037
:102CE000CDF8394601F06AFA684901F0C7F839466B
:102CF00001F064FA0146664806F00F06784450F881
:102D0000260001F05BFA6349794451F8261001F07E
:102D1000B5F86149794451F8261001F0AFF805F192
:102D20007D01FC2908D2294601F0C5FB04B02146EB
:102D3000BDE8F04D01F042BA05F1BF01B1F5BF7F2A
:102D400016D8294601F0B7FB214601F037FA0546AF
:102D5000B8EB450F1AD068000CD02846FFF77FF972
:102D6000042808BFFFF7AEF9284604B0BDE8F08D8F
:102D7000002D0BDA0220FDF79FFBFFF7A3F90146B8
:102D8000204604B061F31E00BDE8F08D0220FDF77F
:102D900093FBFFF792F90146204604B061F31E0051
:102DA000BDE8F08DB1F1804F3CD300BF00F1FF4191
:102DB000B1F1FE4F21D200BF20F00042C5F3C75150
:102DC00010467F290DDB9729BFF651AEC1F1960160
:102DD0004FF0010C0CFA01F1A1F1010C1CEA050FF6
:102DE00007D00120FDF768FB04B0BDE8F04DFFF708
:102DF00060B9294218BF294C39E641001CBF4FF089
:102E00008071B1EB400F09D91B2101F054FB024640
:102E10006FF01A0310F0004FCED128E6BCF1FE4F40
:102E200018D224E6B1F1007F0ED336F0004105D070
:102E300006F0004141F0FC552E46B7E7410018BFAF
:102E4000B8EB400F78D8B1E7B1F1807F38BFA5F576
:102E50000006ABD320F000416FF0FF4C104C01EBAB
:102E60000C03A3422FD31DE0001080C07EE24C3E35
:102E7000ABAAAA3E00B038423BAA3842D49AB8BBAB
:102E80007C220000FC596337C9FF753A1872313D46
:102E900048220000FC210000B0210000000080BF9B
:102EA000FFFF3F0025F000439C44A4450BD3B0F145
:102EB0007E5F18BF5FEA450C3ED0B1F1FF4F98BF6F
:102EC000B3F1FF4F05D904B03146BDE8F04DFFF72F
:102ED000EEB8B0F1FF4F0FD0C5F3C7517F2909DB22
:102EE000972911DAC1F19601012202FA01F14A1E75
:102EF0002A4205D0002108E015F0004F55D128E006
:102F0000294218BF012100D1022110F5000F14D071
:102F100020B3B0F1004F27D010F1814F4ED04FF0C9
:102F2000FE41B1EB400F94BF01200020012101EBD5
:102F3000E571884239D10CE040E015F0004F02D035
:102F4000012936D031E0012902BF3F4804B0BDE875
:102F5000F08D4FF0FF4004B0BDE8F08D15F000405B
:102F60000ED104B0BDE8F08DB5F1FF4F1DD015F5C1
:102F7000000F05D015F0004F14D009B1012907D07A
:102F80000220FDF799FA04B0BDE8F04DFFF78AB8CA
:102F90000220FDF791FAFFF785F804B080F00040B9
:102FA000BDE8F08D09B1012903D004B00020BDE8CF
:102FB000F08D04B04FF00040BDE8F08D04B04FF04C
:102FC0007E50BDE8F08D00BF4FF07E5101F0CCF98E
:102FD00005466FF0010101F06EFA1C4901F0BAF9E3
:102FE000294601F0EBF84FF07C5101F0B3F90746A8
:102FF0002946084601F0E2F880F00040394601F029
:10300000DDF882461249284601F0D8F807461149F2
:10301000504601F0D3F882460F49284601F0CEF819
:10302000514600F02BFF05460146384600F026FFCA
:1030300000F5006B6FF30B0B5946384601F094F91D
:10304000294600F01BFFECE5000080FFABAAAA3E7A
:1030500000B0B8413BAAB841D49A38BB2DE9F04141
:10306000184C0F460546E6682068001D00F038FC45
:1030700038B9206890F82C100120884021698143DC
:103080002161681C07D137B12168BDE8F0410E48C5
:10309000091D00F069BC20683544B54245602168CF
:1030A00005D2A06BBDE8F041091D00F045BC606B86
:1030B000091D00F041FCA06A854200D2A562BDE86E
:1030C000F0810000140000209C0500202DE9F04153
:1030D000054600F055FC2E4CA068401CA0602068FE
:1030E0002C4F10B1606940B32DE02560A068012825
:1030F00029D1002606EB860007EB800000F00EFCCD
:10310000761C072EF6D323488C3000F007FC2148AC
:10311000A03000F003FC1F48B43000F0FFFB1D4856
:10312000C83000F0FBFB1B48DC3000F0F7FB19480F
:103130008C3060631430A06305E02068E96AC06ADF
:10314000884200D82560606A401C6062E96A0120FC
:10315000226988401043206101EB810007EB800069
:10316000291D00F001FC00F02BFC606900280CD048
:103170002068E96AC06A884207D207494FF0805048
:103180000860BFF34F8FBFF36F8FBDE8F081000081
:1031900014000020C004002004ED00E010B5044637
:1031A00090F8510058B101280CD002280FD05020BF
:1031B00080F31188BFF34F8FBFF36F8FFEE7206B53
:1031C00000F012FC2046BDE8104000F00DBC10BD20
:1031D00010484FF40051420706D0C01D0D4920F0A1
:1031E0000700411AC1F500510B4A00230144C2E90E
:1031F00000030839183A21F0070111604B600B6099
:103200000B1AC0E9001393604FF000405360506107
:1032100070470000B005002068000020144E154CD7
:10322000A6F1C8074FF08058DFF84C9012E000BFBD
:1032300000F0A6FBF068C568281D00F051FBA068EF
:10324000401EA0606068401E606000F0B9FB284628
:10325000FFF7A4FF60680028EAD138680128F9D98F
:10326000C9F80080BFF34F8FBFF36F8FF2E7000004
:10327000880500201400002004ED00E02DE9F0474F
:103280009A46DDE9098481466FF00303206B03EB66
:1032900082021044089E20F00707780707D05020CC
:1032A00080F31188BFF34F8FBFF36F8FFEE70025C8
:1032B00061B1002023180A5C83F834200A5C12B143
:1032C000401C1028F6D384F8435001E084F83450B1
:1032D000072E00D30626E662C4E91165201D00F022
:1032E00028FB04F1180000F024FB2461C6F107005C
:1032F0006462A061E56484F85050524649463846FD
:1033000000F0C0F82060B8F1000F01D0C8F800400C
:10331000BDE8F08730B5114900E011460A688242E5
:10332000FBD34B685C18844203D140681844486062
:10333000084643681C18944209D1084C183C24687C
:10334000A24209D052681A4442600A6812680260B8
:10335000814200D0086030BD0460F9E768000020B9
:103360000648416B096829B1416BC968C968496859
:10337000816270474FF0FF31FAE70000140000202F
:1033800008484068401C4FF0500080F3118804D07A
:10339000BFF34F8FBFF36F8FFEE7BFF34F8FBFF3C6
:1033A0006F8FFEE7700000202DE9F04105460027F1
:1033B00000F0BAFB324E306808B9FFF709FF7069B8
:1033C00005424ED1C5B3083568070ED005F0070099
:1033D000C0F108000544680707D0502080F3118829
:1033E000BFF34F8FBFF36F8FFEE72DB37068854239
:1033F00037D82348183001460C6801E020460C46B7
:103400006168A94202D221680029F7D131688C4253
:1034100027D007682168016060680837411B1029C0
:103420000FD96019420708D0502080F31188BFF3EC
:103430004F8FBFF36F8FFEE713E041606560FFF7CA
:1034400069FF61687068401A7060B268904200D28B
:10345000B060706901430020C4E90001F068401CBD
:10346000F06000F0A9FC780707D0502080F31188A5
:10347000BFF34F8FBFF36F8FFEE73846BDE8F08193
:103480005000002010B5031F4FF080741C601B1FFC
:1034900021F001011960191F024B0B6014394038EB
:1034A0000A6010BD8133000870B5204D0024012151
:1034B0002846FDF74BF900B9012402212846FDF703
:1034C00045F908B944F002044FF480612846FDF73D
:1034D0003DF908B944F004044FF400612846FDF7B3
:1034E00035F908B944F008044FF480512846FDF737
:1034F0002DF908B944F010044FF400512846FDF7A7
:1035000025F908B944F020044FF480412846FDF71E
:103510001DF908B944F040044FF400412846FDF776
:1035200015F908B944F08004204670BD000C014034
:10353000002801DB014600E04142B1F5006F09DBE4
:10354000000301F5006190FBF1F040F2FF72D143FE
:10355000FEF7BDBD7047000001488078704700004D
:103560007C0000202DE9F047534C0025534AD4F845
:103570000C802E462946A94647F6FF7A01EB810CBE
:1035800002EB8C00037B33B3437B002B438906D0D3
:103590005746BB33BB4200D29FB2478103E0042BA6
:1035A00077D91B1F438152F82C3047683B4442F8BF
:1035B0002C301B0E078938F813304089A3F50063BF
:1035C0005F4340F2FF7397FBF3F3584390FBFAF02D
:1035D0006D1C0644EDB2491CC9B20429CED300F0DB
:1035E00069F9A078284364D0042D00D90425344813
:1035F00030F815007043C11700EB915061788012CC
:1036000099B122692F4B110E33F8111040F6FF7358
:10361000C90291FBF3F101F500614843C11700EBCA
:1036200011502949001311442161FFF781FFA1784E
:1036300069B3224FA1885037626937F91110891A8E
:1036400002EBA1018A1C6161052A00D20021C1EBB5
:10365000C10202EB8203642201EB810193FBF2F3CE
:10366000C90091FBF2F11E18084452461749FEF7B3
:103670002EFDA18827F81100491C88B240F6EC41C4
:10368000A080884201D3A4F80490304635B10BE005
:10369000FFE7A0F80A9080F80C909CE7022803DA74
:1036A00010F1020F00DD0020FFF742FF00F500607F
:1036B00080B2BDE8F08700007C000020BC2500201F
:1036C0008C450008964500085BDC0E000080FFFF7B
:1036D00001484078704700007C00002001480078D5
:1036E000704700007C00002010B550210E48FCF708
:1036F00074FE0E490C4A012088600C3A00201060CC
:103700005060108190720870094ACA6048708870D1
:103710000861888048610448BDE8104041F6D8112E
:103720005030FCF738BE0000BC2500207C00002093
:103730009645000830B40021094B0C4601EB81028C
:1037400003EB8202157B1DB1957B854200D154733A
:10375000491CC9B20429F1D330BC00F0ABB8000059
:10376000BC2500202DE9F05F06464FF0FF300246F1
:10377000A6F115041346582C6BD2C1EBC1217F244E
:10378000B1FBF4F111EA104500D101250021DFF869
:10379000C8A0DFF8C8808B464FF0010901EB810714
:1037A00008EB870494F80CC0BCF1000F17D094F814
:1037B0000EC0B44513D101EB8102304648F822B067
:1037C000FEF7BCFE08EB87014860258184F80D9068
:1037D000DAF808102161491CCAF8081035E0491CC4
:1037E000C9B20429DAD3002101EB810408EB840477
:1037F000277B67B124699C4201D223460A46491CB3
:10380000C9B20429F0D3002805DBC0B204E00028C7
:10381000F5DA0846F3E7D0B200EB80045F4648F8DB
:1038200024B03046FEF78AFE014608EB8400416072
:103830000581478180F80C9080F80D908673DAF846
:1038400008200261521CCAF80820BDE8F05F00F0B1
:1038500031B8BDE8F09F00007C000020BC250020AE
:1038600010B500B10120064C0028A07007D141F628
:10387000D8110448FCF78FFD0020A080606110BDC6
:103880007C0000200C26002000B101200149487076
:10389000704700007C000020042805D20349044A38
:1038A000087052F82000C860704700007C000020BB
:1038B0007C4500080949002001F10C02887200BF14
:1038C00000EB800302EB83031B7B13B101208872A2
:1038D0007047401CC0B20428F2D37047B0250020C6
:1038E000D0E9013201699A60D0E901235A604A683F
:1038F000824201D182684A60002202610868401E4B
:103900000860086870470000034B036003F154002F
:103910000860802010607047F800002000F1080166
:103920004FF0FF32C0E90112C16001610021016066
:10393000704700210161704730B50B685A1C02D0F6
:1039400000F1080202E0026904E02246546825689A
:103950009D42FAD953684B6099608A605160086152
:103960000168491C016030BD42684A6093688B6001
:1039700093685960916008610168491C0160704753
:10398000502080F31188BFF34F8FBFF36F8F0A4928
:103990004868401C486001280CD10848006810F0B5
:1039A000FF0F07D0502080F31188BFF34F8FBFF374
:1039B0006F8FFEE7704700007000002004ED00E00C
:1039C0000849486828B1401E486001D180F3118839
:1039D0007047502080F31188BFF34F8FBFF36F8F74
:1039E000FEE700007000002070B500282AD0164DB8
:1039F000A0F1080460686969084207D1502080F38B
:103A00001188BFF34F8FBFF36F8FFEE722683AB183
:103A1000502080F31188BFF34F8FBFF36F8FFEE705
:103A20008843606000F080F86068696808446860F6
:103A30002046FFF76FFC2869401C2861BDE87040F4
:103A400000F0BAB970BD0000500000204FF0E02037
:103A500000210161816105494FF47A720968B1FB67
:103A6000F2F1491E416107210161704710000020F9
:103A700010B5020014D00F48006B38B1502080F30D
:103A80001188BFF34F8FBFF36F8FFEE700F04CF844
:103A900000211046FFF7E2FA00F08EF9002807D166
:103AA00005494FF080500860BFF34F8FBFF36F8F11
:103AB00010BD00001400002004ED00E010B586B039
:103AC0000024039405AA04A903A80494FFF71CFF8B
:103AD000DDE903010094CDE9011000230EA1104897
:103AE000059A00F0D8F80F490028C86211D050207C
:103AF00080F31188BFF34F8FBFF36F8F4FF0FF300C
:103B0000886201204861CC6006B0BDE8104000F03A
:103B100041B806B010BD000049444C45000000000B
:103B20001D320008140000200248016B491C01638B
:103B300070470000140000201448016B11B10121EE
:103B4000C16170470021C1610169B1FA81F1C1F120
:103B50001F0101EB81020E4951F822306BB101EBDC
:103B6000820101F108034A6852684A609A4201D111
:103B700052684A60D16801607047502080F3118814
:103B8000BFF34F8FBFF36F8FFEE7000014000020DC
:103B9000C00400201CB5264908780190FF20087059
:103BA00008788DF800009DF800009DF8002000F0D6
:103BB000F000904207D0502080F31188BFF34F8F60
:103BC000BFF36F8FFEE79DF800001A4C00F0500025
:103BD00020700720A06005E09DF8002052008DF8BD
:103BE0000020401E9DF800201206F5D4A060032896
:103BF00007D0502080F31188BFF34F8FBFF36F8F32
:103C0000FEE74FF44070A060019808700A48016810
:103C100041F470010160016841F070410160FFF7FB
:103C200015FF00206060FCF7C1FA00201CBD0000F9
:103C300000E400E07000002020ED00E02DE9FF5FCF
:103C40008346DDE90E87994616468A469000FFF7BF
:103C5000ABFB05001CD05420FFF7A6FB040014D0DA
:103C60000020256384F85100CDE90240CDE90087AA
:103C70004B46324651465846FFF700FB2046FFF7B9
:103C800025FA012004B0BDE8F09F2846FFF7ACFEFE
:103C90004FF0FF30F6E7F0B585B0DDE90B640A9D23
:103CA000A6B1DCB1542700972663022684F8516040
:103CB000002604AFCDE90246CDE90057FFF7DEFA52
:103CC0002046FFF703FA049805B0F0BD502080F3BA
:103CD0001188BFF34F8FBFF36F8FFEE7502080F343
:103CE0001188BFF34F8FBFF36F8FFEE72DE9F041CF
:103CF0002F4C0026206B28B1A069401CA0613046E3
:103D0000BDE8F081E5686D1CE56013D1606B00686B
:103D100038B1502080F31188BFF34F8FBFF36F8FFE
:103D2000FEE7606BA16B6163A063206A401C2062A8
:103D3000FFF716FBA06ADFF87C80854209D3606B31
:103D40000068A0B1606BC068C7687868854211D20E
:103D5000A0622068C06A00EB800158F821000128A9
:103D600000D90126E0690028C9D00126C7E74FF035
:103D7000FF30EDE7381DFFF7B3FDB86A18B107F162
:103D80001800FFF7ADFDF96A012022698840104351
:103D9000206101EB810108EB8100391DFFF7E4FD93
:103DA000F86A2168C96A8842C9D30126C7E70000BA
:103DB00014000020C00400202DE9F0472C4D002401
:103DC0002746286B38B1FFF7DBFD286B401E2863C0
:103DD000286B40B146E0502080F31188BFF34F8F2D
:103DE000BFF36F8FFEE7A968224E0120D1B3A6F181
:103DF000B40980463068E8B1F068C46804F118007E
:103E0000FFF76EFD201DFFF76BFDE06A2A6908FAD7
:103E100000F11143296100EB800109EB8100211DB4
:103E2000FFF7A2FDE06A2968C96A8842E2D3C5F8B3
:103E30001C80DFE70CB1FFF793FAAC6944B146464A
:103E4000FFF754FF00B1EE61641EF9D10020A861B4
:103E5000E86938B10849012738070860BFF34F8F78
:103E6000BFF36F8FFFF7ACFD3846BDE8F087000069
:103E7000140000207405002004ED00E090EA010F1A
:103E800048BF81F0004100F17682421A3CBF801A9F
:103E900089184FEAD0524FF07F4C1CEA410FA2EB39
:103EA000D15318BF9CEA026F00F03B804FF0004CEA
:103EB0004CEA00204CEA012121FA03FC10EB0C0C27
:103EC0001ED202F1FF325FEA1C2040EBC25038BF25
:103ED00070471CF07F0F4FEA400C18BFBCF17F4FBA
:103EE00038BF7047C3F12003994008BF20F001009C
:103EF000BCF17F4F38BF7047A0F1C04000F025BA39
:103F00004FEA3C00000A40EBC25028BF1CF0FF0FF4
:103F10004FEA400CE6D018BFBCF17F4F38BF704766
:103F2000EAE79CEA026F05D010EA5C0F08BF00F0D8
:103F30000040704710B500F0C2F900BF64FBBE3E00
:103F4000014800F086BA00BF0000C07F4FF47F0C2C
:103F50001CEAD0121EBF1CEAD11392EA0C0F93EA9E
:103F60000C0F00F0858090EA010F48BF42F4807288
:103F700040F4000C41F400002CF07F4120F07F4021
:103F800000B58142A2EB03020FF2081CACEB504ECD
:103F9000C0F100009EF800E04FEA4E0E00FB0EFC60
:103FA00038BF49004FEA2C1C02F5FA020CFB0EF355
:103FB0004FEACE1E4FEA112C4FEAC1210EEB635E91
:103FC00042EB22420EFB0CFC4FEA1C5300FB031198
:103FD0004FEA112C4FEA01310EFB0CFC4FEADC4C8E
:103FE00000FB0C11C14228BF09184CEB03335DF8EC
:103FF00004EB10EB410143EBC250B2F57C0F38BF2C
:10400000704729D512F0F00F1CBF00F1C04000F03E
:1040100000407047008182838485868788898B8CE5
:104020008D8E8F919293959697999A9C9D9FA0A221
:10403000A3A5A7A8AAACAEB0B2B3B5B7B9BCBEC071
:10404000C2C5C7C9CCCED1D4D7D9DCDFE2E6E9EC12
:10405000F0F3F7FAFE0000004FEA400C0CF1807C10
:10406000BCF17E4F28BF7047B0F1C04000F06DB981
:1040700090EA010F0CEAD11348BF42F48072624506
:1040800038BF634507D213F47F0F16D080EA0100D2
:1040900000F00040704710B500F011F9097EFC3EB9
:1040A00000F005B880EA010000F00040704780EAA7
:1040B000010000F0004000F048B912F47F0F04BF87
:1040C0000248704780EA010000F03FB90000C07F5D
:1040D00041000B0ED3F19E0216D950F400034FEAB3
:1040E000032333FA02FC0AD363FA02F383EA0C03D4
:1040F00093F0004F0CF1010C08BF2CF0010C5CEAAE
:10410000100028BF4042704710B500F0D8F800BF3B
:1041100049922480002070476FF0004282EA20001C
:1041200070470000C10DD1F19E0206DB4FEA00236B
:1041300043F0004323FA02F07047004207D54FEAEC
:104140004001B1F1FE4F02D24FF00000704710B5B0
:1041500000F0B5F849922480002070476FEA2000F3
:104160007047000010F0004148BF4042B0FA80F3B1
:1041700010FA03F2C3F19D030BD051EAC35101EBD6
:104180001220530638BF704700F1010008BF20F02D
:1041900001007047B0FA80F310FA03F2C3F19D03F7
:1041A0000AD0D90501EB1220530638BF704700F141
:1041B000010008BF20F00100704700004FF47F0CA1
:1041C0001CEAD0121EBF1CEAD11392EA0C0F93EA2C
:1041D0000C0F00F0478090EA010F48BF42F4807254
:1041E0004FF0004C4CEA00204CEA012102EB0302A4
:1041F000A0FB0113A2F50002002918BF43F0010340
:104200005B0028BF4FEA330342EB22425FEA132CE4
:104210004CEBC2502EBFBCEB436FB2F57C0F704726
:104220004FEA036CBCF1004F08BF20F00100B2F56B
:104230007C0F38BF70470BD582F0FF0212F5803F2C
:10424000C8BF704700F1C040D8BF00F000407047C1
:1042500000F5000C5FEA4C0C48BF7047B0F1C0405D
:1042600000F073B890EA010F0CEAD11348BF42F492
:104270008072624538BF634504D280EA010000F0D5
:104280000040704710B500F01AF800BF8900013EE9
:1042900000F007B800F009B85FEA410C5FEA1C6C57
:1042A00008D080EA010000F050B85FEA400C5FEAF5
:1042B0001C6CF6D14FF00040A0F5800070470EF165
:1042C000020E2EF0030E5EF8044B244204D44FEA93
:1042D0004102B2F17F4F11D84FEA4003B3F17F4F53
:1042E0000CD80ED14FEAD07CB2F17F4F0CEB4C0CC6
:1042F0000CF1020C08BF4CEBD17C04E04FF0080C31
:1043000001E04FEAD17C0CEB4C0324FA03F404F0F7
:104310000704B4F1040C06D20EEB840CBDE8104087
:104320004CF0010C6047DFE80CF0070802024FF088
:104330000040A0F5800010BD0846420018BFD2F131
:10434000807288BF00F0004010BDFF2141EAD050CC
:10435000C005704780F0004090EA010F7FF595ADF1
:1043600081F0004100F007B890EA010F48BF81F0EA
:1043700000413FF58AAD421A04D882F00042A0EB1A
:10438000020011444FEAD0524FF07F4C1CEA410F1B
:10439000A2EBD15318BF9CEA026F4AD04FF0004CF9
:1043A0004CEA00204CEA012121FA03FCB0EB0C0C92
:1043B0000FD412F0FE0F36D05FEA4C001DD500126C
:1043C00040EBC25038BF70471CF03F0F18BF70471A
:1043D0000BE0A2F101025FEA1C2040EBC25038BFA3
:1043E00070471CF07F0F18BF7047C3F1200399403E
:1043F00014BF401E20F00100704780084FEA1223CE
:1044000008BF7047B0FA80FCA2EB0C02CCF1280C7C
:1044100060FA0CF093EA122F04BF00EBC250704711
:104420004FEAC3707047130A5FEADC1008BF704799
:10443000F6E79CEA026F04D010EA5C0F08BF002088
:10444000704710B5FFF73BFF40DFF63E81F00040BC
:1044500070470CF00F03092B08BF082000F05180B3
:104460000A2B0BD0082B18BF704708BF1CF0400F59
:104470000AD04FF000004FF0000170471CF0400FD1
:1044800018BF4FF0004070471CF0100F08D020F00C
:10449000704300F07F4242EAD3014FEA4370704715
:1044A00000F0604021F07F4242EA000201F07F40CC
:1044B00040EA727070474FF0FF0212EAD0521CBF00
:1044C00092F0FF038B42C2BFD14200EBC150704754
:1044D000002A0AD0002B0BD0002900F00040A4BF16
:1044E00040F0FE4040F40000704700F0004070478C
:1044F00043024FF00B0C18BF4CF0806C7FF420ADE2
:1045000070471CF4801F11D01CF4E02F03D06FEA19
:10451000CC31490070474FF04050EFF3008222F059
:10452000704242EA000282F3008870474FF00000B8
:1045300070470000884F0008851C0008000000003C
:1045400000000000800000000000000000000000EB
:10455000010202030405060708090A0B0C0D0E0FE1
:104560001010000000000000000001020304060714
:10457000080900000000010203040000964500083D
:104580009647000896490008964B00080000000472
:10459000F8026C021C020008320864089608C80879
:1045A000FA082C095E098F09C009F109220A520A8A
:1045B000820AB10AE00A0F0B3D0B6B0B980BC50B7F
:1045C000F10B1C0C470C710C9A0CC30CEB0C120D6C
:1045D000390D5F0D830DA70DCA0DED0D0E0E2E0EBC
:1045E0004E0E6C0E8A0EA60EC10EDC0EF50E0D0FD1
:1045F000240F3A0F4F0F630F760F870F980FA70FF7
:10460000B50FC20FCD0FD80FE10FE90FF00FF50F67
:10461000F90FFD0FFE0FFF0FFE0FFD0FF90FF50F46
:10462000F00FE90FE10FD80FCD0FC20FB50FA70F95
:10463000980F870F760F630F4F0F3A0F240F0D0F50
:10464000F50EDC0EC10EA60E8A0E6C0E4E0E2E0E50
:104650000E0EED0DCA0DA70D830D5F0D390D120D58
:10466000EB0CC30C9A0C710C470C1C0CF10BC50B1A
:10467000980B6B0B3D0B0F0BE00AB10A820A520A32
:10468000220AF109C0098F095E092C09FA08C80835
:104690009608640832080008CD079B0769073707AA
:1046A0000507D306A10670063F060E06DD05AD051B
:1046B0007D054E051F05F004C204940467043A0406
:1046C0000E04E303B8038E0365033C031403ED02F9
:1046D000C602A0027C02580235021202F101D10189
:1046E000B1019301750159013E0123010A01F20054
:1046F000DB00C500B0009C0089007800670058000E
:104700004A003D00320027001E0016000F000A007C
:1047100006000200010000000100020006000A007D
:104720000F0016001E00270032003D004A0058000E
:104730006700780089009C00B000C500DB00F20033
:104740000A0123013E01590175019301B101D10113
:10475000F1011202350258027C02A002C602ED02EB
:1047600014033C0365038E03B803E3030E043A0409
:1047700067049404C204F0041F054E057D05AD05D1
:10478000DD050E063F067006A106D30605073707AE
:1047900069079B07CD07FF0FFF0FFF0FFF0FFF0FED
:1047A000FF0FFF0FFF0FFF0FFF0FFF0FFF0FFF0F99
:1047B000FF0FFF0FFF0FFF0FFF0FFF0FFF0FFF0F89
:1047C000FF0FFF0FFF0FFF0FFF0FFF0FFF0FFF0F79
:1047D000FF0FFF0FFF0FFF0FFF0FFF0FFF0FFF0F69
:1047E000FF0FFF0FFF0FFF0FFF0FFF0FFF0FFF0F59
:1047F000FF0FFF0FFF0FFF0FFF0FFF0FFF0FFF0F49
:10480000FF0FFF0FFF0FFF0FFF0FFF0FFF0FFF0F38
:10481000FF0FFF0FFF0FFF0FFF0FFF0FFF0FFF0F28
:10482000FF0FFF0FFF0FFF0FFF0FFF0FFF0FFF0F18
:10483000FF0FFF0FFF0FFF0FFF0FFF0FFF0FFF0F08
:10484000FF0FFF0FFF0FFF0FFF0FFF0FFF0FFF0FF8
:10485000FF0FFF0FFF0FFF0FFF0FFF0FFF0FFF0FE8
:10486000FF0FFF0FFF0FFF0FFF0FFF0FFF0FFF0FD8
:10487000FF0FFF0FFF0FFF0FFF0FFF0FFF0FFF0FC8
:10488000FF0FFF0FFF0FFF0FFF0FFF0FFF0FFF0FB8
:10489000FF0FFF0FFF0F00000000000000000000EE
:1048A0000000000000000000000000000000000008
:1048B00000000000000000000000000000000000F8
:1048C00000000000000000000000000000000000E8
:1048D00000000000000000000000000000000000D8
:1048E00000000000000000000000000000000000C8
:1048F00000000000000000000000000000000000B8
:1049000000000000000000000000000000000000A7
:104910000000000000000000000000000000000097
:104920000000000000000000000000000000000087
:104930000000000000000000000000000000000077
:104940000000000000000000000000000000000067
:104950000000000000000000000000000000000057
:104960000000000000000000000000000000000047
:104970000000000000000000000000000000000037
:104980000000000000000000000000000000000027
:104990000000000000000000100020003000400077
:1049A00050006000700080009000A000B000C000C7
:1049B000D000E000F00000011001200130014001B2
:1049C00050016001700180019001A001B001C0019F
:1049D000D001E001F001000210022002300240028A
:1049E00050026002700280029002A002B002C00277
:1049F000D002E002F0020003100320033003400362
:104A000050036003700380039003A003B003C0034E
:104A1000D003E003F0030004100420043004400439
:104A200050046004700480049004A004B004C00426
:104A3000D004E004F0040005100520053005400511
:104A400050056005700580059005A005B005C005FE
:104A5000D005E005F00500061006200630064006E9
:104A600050066006700680069006A006B006C006D6
:104A7000D006E006F00600071007200730074007C1
:104A800050076007700780079007A007B007C007AE
:104A9000D007E007F0070008100820083008400899
:104AA00050086008700880089008A008B008C00886
:104AB000D008E008F0080009100920093009400971
:104AC00050096009700980099009A009B009C0095E
:104AD000D009E009F009000A100A200A300A400A49
:104AE000500A600A700A800A900AA00AB00AC00A36
:104AF000D00AE00AF00A000B100B200B300B400B21
:104B0000500B600B700B800B900BA00BB00BC00B0D
:104B1000D00BE00BF00B000C100C200C300C400CF8
:104B2000500C600C700C800C900CA00CB00CC00CE5
:104B3000D00CE00CF00C000D100D200D300D400DD0
:104B4000500D600D700D800D900DA00DB00DC00DBD
:104B5000D00DE00DF00D000E100E200E300E400EA8
:104B6000500E600E700E800E900EA00EB00EC00E95
:104B7000D00EE00EF00E000F100F200F300F400F80
:104B8000500F600F700F800F900FA00FB00FC00F6D
:104B9000D00FE00FF00F0000200040006000800008
:104BA000A000C000E0000001200140016001800180
:104BB000A001C001E0010002200240026002800268
:104BC000A002C002E0020003200340036003800350
:104BD000A003C003E0030004200440046004800438
:104BE000A004C004E0040005200540056005800520
:104BF000A005C005E0050006200640066006800608
:104C0000A006C006E00600072007400760078007EF
:104C1000A007C007E00700082008400860088008D7
:104C2000A008C008E00800092009400960098009BF
:104C3000A009C009E009000A200A400A600A800AA7
:104C4000A00AC00AE00A000B200B400B600B800B8F
:104C5000A00BC00BE00B000C200C400C600C800C77
:104C6000A00CC00CE00C000D200D400D600D800D5F
:104C7000A00DC00DE00D000E200E400E600E800E47
:104C8000A00EC00EE00E000F200F400F600F800F2F
:104C9000A00FC00FE00FFF0FDF0FBF0F9F0F7F0FA1
:104CA0005F0F3F0F1F0FFF0EDF0EBF0E9F0E7F0E19
:104CB0005F0E3F0E1F0EFF0DDF0DBF0D9F0D7F0D11
:104CC0005F0D3F0D1F0DFF0CDF0CBF0C9F0C7F0C09
:104CD0005F0C3F0C1F0CFF0BDF0BBF0B9F0B7F0B01
:104CE0005F0B3F0B1F0BFF0ADF0ABF0A9F0A7F0AF9
:104CF0005F0A3F0A1F0AFF09DF09BF099F097F09F1
:104D00005F093F091F09FF08DF08BF089F087F08E8
:104D10005F083F081F08FF07DF07BF079F077F07E0
:104D20005F073F071F07FF06DF06BF069F067F06D8
:104D30005F063F061F06FF05DF05BF059F057F05D0
:104D40005F053F051F05FF04DF04BF049F047F04C8
:104D50005F043F041F04FF03DF03BF039F037F03C0
:104D60005F033F031F03FF02DF02BF029F027F02B8
:104D70005F023F021F02FF01DF01BF019F017F01B0
:104D80005F013F011F01FF00DF00BF009F007F00A8
:104D90005F003F001F003C3E404143454748000044
:104DA000000000003636000008080808083E514997
:104DB000453E00427F400042615149462141454BFA
:104DC000311814127F1027454545393C4A4949306E
:104DD00001710905033649494936064949291E1416
:104DE0007F147F147E1111117E7F494949363E415F
:104DF0004141227F4141221C7F494949417F0909A4
:104E000009013E4149493A00417F41007F4040400D
:104E1000407F0204027F7F020C107F3E4141413EF1
:104E20003E4151215E7F09192946464949493101D0
:104E3000017F01013F4040403F1F2040201F7F2055
:104E400018207F0304780403000000000000000025
:104E50000000B33FB2BE7D3A00002E40DFCF513894
:104E600000007E40BF51FABA00E0A44019DAC3BA8C
:104E700000E0C840C2ED8AB90040EB40CD1F2CBA1B
:104E8000001006412AFFFABA00C01541DFCFD13722
:104E900000D024419A97703A0050334189478E36AA
:104EA00000404141E75B9D3800B04E41C00A98B9CF
:104EB00000A05B41558F943A00306841DA92C0BA45
:104EC0000040744162B3C63A0000803F00A0853FB5
:104ED00000908B3F00C0913F0030983F00F09E3F14
:104EE00000F0A53F0050AD3F0000B53F0000BD3FC2
:104EF0000060C53F0020CE3F0040D73F00C0E03FEC
:104F000000C0EA3F0020F53F000000007D36AC39CC
:104F10007D3C3839EBDCF438320A7E39124C2639C4
:104F20009B6AED39A4EE83397F661E39F6398A39DA
:104F30002B426539A48211395B991F39C3EECD39F3
:104F4000DDE7C637A5A22F390000803FC3AA853F01
:104F5000C2958B3FD3C3913FF037983F32F59E3FC8
:104F6000D7FEA53F3F58AD3FF304B53FA408BD3F72
:104F70002A67C53F8C24CE3FFD44D73FDFCCE03FBE
:104F8000C7C0EA3F7D25F53F64656661756C745462
:104F900061736B00412300004323000044230000A1
:104FA00046230000472300004100000042000000AB
:104FB00043000000440000004500000046000000DF
:104FC00047000000E44F000800000020F800000047
:104FD00028010008DC500008F80000209845000077
:104FE0004401000800000000010000001000000063
:104FF0000000000000127A00000000000000000025
:1050000000000000000000000000000000000000A0
:105010000000000000000000000000000000000090
:105020000000000000000000000000000000000080
:105030000000000000000000000000000000000070
:105040000000000000000000000000000000000060
:105050000000000000000000AAAAAAAA00000000A8
:10506000000000000000000001000000964500085C
:105070000000000000000000FF0000000000000031
:105080000000000000000000000000000000000020
:105090000000000000000000000000000000000010
:1050A000000000000000000000000000B04F0008F9
:1050B000984F0008B44F00089C4F0008B84F0008F4
:1050C000BC4F0008A04F0008C04F0008A44F0008C4
:0C50D000A84F0008944F0008AC4F0008E7
:04000005080000ED02
:00000001FF
